{
  "_format": "hh-sol-artifact-1",
  "contractName": "Market",
  "sourceName": "contracts/Market.sol",
  "abi": [
    {
      "inputs": [],
      "stateMutability": "nonpayable",
      "type": "constructor"
    },
    {
      "anonymous": false,
      "inputs": [
        {
          "indexed": true,
          "internalType": "address",
          "name": "owner",
          "type": "address"
        },
        {
          "indexed": true,
          "internalType": "address",
          "name": "approved",
          "type": "address"
        },
        {
          "indexed": true,
          "internalType": "uint256",
          "name": "tokenId",
          "type": "uint256"
        }
      ],
      "name": "Approval",
      "type": "event"
    },
    {
      "anonymous": false,
      "inputs": [
        {
          "indexed": true,
          "internalType": "address",
          "name": "owner",
          "type": "address"
        },
        {
          "indexed": true,
          "internalType": "address",
          "name": "operator",
          "type": "address"
        },
        {
          "indexed": false,
          "internalType": "bool",
          "name": "approved",
          "type": "bool"
        }
      ],
      "name": "ApprovalForAll",
      "type": "event"
    },
    {
      "anonymous": false,
      "inputs": [
        {
          "indexed": true,
          "internalType": "uint256",
          "name": "itemId",
          "type": "uint256"
        },
        {
          "indexed": true,
          "internalType": "address",
          "name": "nftContract",
          "type": "address"
        },
        {
          "indexed": true,
          "internalType": "uint256",
          "name": "tokenId",
          "type": "uint256"
        },
        {
          "indexed": false,
          "internalType": "address",
          "name": "seller",
          "type": "address"
        },
        {
          "indexed": false,
          "internalType": "address",
          "name": "owner",
          "type": "address"
        },
        {
          "indexed": false,
          "internalType": "uint256",
          "name": "price",
          "type": "uint256"
        },
        {
          "indexed": false,
          "internalType": "bool",
          "name": "sold",
          "type": "bool"
        }
      ],
      "name": "MarketItemCreated",
      "type": "event"
    },
    {
      "anonymous": false,
      "inputs": [
        {
          "indexed": true,
          "internalType": "address",
          "name": "from",
          "type": "address"
        },
        {
          "indexed": true,
          "internalType": "address",
          "name": "to",
          "type": "address"
        },
        {
          "indexed": true,
          "internalType": "uint256",
          "name": "tokenId",
          "type": "uint256"
        }
      ],
      "name": "Transfer",
      "type": "event"
    },
    {
      "inputs": [
        {
          "internalType": "address",
          "name": "to",
          "type": "address"
        },
        {
          "internalType": "uint256",
          "name": "tokenId",
          "type": "uint256"
        }
      ],
      "name": "approve",
      "outputs": [],
      "stateMutability": "nonpayable",
      "type": "function"
    },
    {
      "inputs": [
        {
          "internalType": "address",
          "name": "owner",
          "type": "address"
        }
      ],
      "name": "balanceOf",
      "outputs": [
        {
          "internalType": "uint256",
          "name": "",
          "type": "uint256"
        }
      ],
      "stateMutability": "view",
      "type": "function"
    },
    {
      "inputs": [
        {
          "internalType": "address",
          "name": "nftContract",
          "type": "address"
        },
        {
          "internalType": "uint256",
          "name": "itemId",
          "type": "uint256"
        }
      ],
      "name": "buyMarketItem",
      "outputs": [],
      "stateMutability": "payable",
      "type": "function"
    },
    {
      "inputs": [
        {
          "internalType": "address",
          "name": "nftContract",
          "type": "address"
        },
        {
          "internalType": "uint256",
          "name": "tokenId",
          "type": "uint256"
        },
        {
          "internalType": "uint256",
          "name": "price",
          "type": "uint256"
        }
      ],
      "name": "createMarketItem",
      "outputs": [],
      "stateMutability": "payable",
      "type": "function"
    },
    {
      "inputs": [
        {
          "internalType": "string",
          "name": "tokenUri",
          "type": "string"
        }
      ],
      "name": "createToken",
      "outputs": [
        {
          "internalType": "uint256",
          "name": "",
          "type": "uint256"
        }
      ],
      "stateMutability": "nonpayable",
      "type": "function"
    },
    {
      "inputs": [],
      "name": "fetchItemsCreated",
      "outputs": [
        {
          "components": [
            {
              "internalType": "uint256",
              "name": "itemId",
              "type": "uint256"
            },
            {
              "internalType": "address",
              "name": "nftContract",
              "type": "address"
            },
            {
              "internalType": "uint256",
              "name": "tokenId",
              "type": "uint256"
            },
            {
              "internalType": "address payable",
              "name": "seller",
              "type": "address"
            },
            {
              "internalType": "address payable",
              "name": "owner",
              "type": "address"
            },
            {
              "internalType": "uint256",
              "name": "price",
              "type": "uint256"
            },
            {
              "internalType": "bool",
              "name": "sold",
              "type": "bool"
            }
          ],
          "internalType": "struct Market.MarketItem[]",
          "name": "",
          "type": "tuple[]"
        }
      ],
      "stateMutability": "view",
      "type": "function"
    },
    {
      "inputs": [],
      "name": "fetchMyNFTs",
      "outputs": [
        {
          "components": [
            {
              "internalType": "uint256",
              "name": "itemId",
              "type": "uint256"
            },
            {
              "internalType": "address",
              "name": "nftContract",
              "type": "address"
            },
            {
              "internalType": "uint256",
              "name": "tokenId",
              "type": "uint256"
            },
            {
              "internalType": "address payable",
              "name": "seller",
              "type": "address"
            },
            {
              "internalType": "address payable",
              "name": "owner",
              "type": "address"
            },
            {
              "internalType": "uint256",
              "name": "price",
              "type": "uint256"
            },
            {
              "internalType": "bool",
              "name": "sold",
              "type": "bool"
            }
          ],
          "internalType": "struct Market.MarketItem[]",
          "name": "",
          "type": "tuple[]"
        }
      ],
      "stateMutability": "view",
      "type": "function"
    },
    {
      "inputs": [
        {
          "internalType": "uint256",
          "name": "tokenId",
          "type": "uint256"
        }
      ],
      "name": "getApproved",
      "outputs": [
        {
          "internalType": "address",
          "name": "",
          "type": "address"
        }
      ],
      "stateMutability": "view",
      "type": "function"
    },
    {
      "inputs": [],
      "name": "getListingPrice",
      "outputs": [
        {
          "internalType": "uint256",
          "name": "",
          "type": "uint256"
        }
      ],
      "stateMutability": "view",
      "type": "function"
    },
    {
      "inputs": [],
      "name": "getMarketItems",
      "outputs": [
        {
          "components": [
            {
              "internalType": "uint256",
              "name": "itemId",
              "type": "uint256"
            },
            {
              "internalType": "address",
              "name": "nftContract",
              "type": "address"
            },
            {
              "internalType": "uint256",
              "name": "tokenId",
              "type": "uint256"
            },
            {
              "internalType": "address payable",
              "name": "seller",
              "type": "address"
            },
            {
              "internalType": "address payable",
              "name": "owner",
              "type": "address"
            },
            {
              "internalType": "uint256",
              "name": "price",
              "type": "uint256"
            },
            {
              "internalType": "bool",
              "name": "sold",
              "type": "bool"
            }
          ],
          "internalType": "struct Market.MarketItem[]",
          "name": "",
          "type": "tuple[]"
        }
      ],
      "stateMutability": "view",
      "type": "function"
    },
    {
      "inputs": [
        {
          "internalType": "address",
          "name": "owner",
          "type": "address"
        },
        {
          "internalType": "address",
          "name": "operator",
          "type": "address"
        }
      ],
      "name": "isApprovedForAll",
      "outputs": [
        {
          "internalType": "bool",
          "name": "",
          "type": "bool"
        }
      ],
      "stateMutability": "view",
      "type": "function"
    },
    {
      "inputs": [],
      "name": "name",
      "outputs": [
        {
          "internalType": "string",
          "name": "",
          "type": "string"
        }
      ],
      "stateMutability": "view",
      "type": "function"
    },
    {
      "inputs": [
        {
          "internalType": "uint256",
          "name": "tokenId",
          "type": "uint256"
        }
      ],
      "name": "ownerOf",
      "outputs": [
        {
          "internalType": "address",
          "name": "",
          "type": "address"
        }
      ],
      "stateMutability": "view",
      "type": "function"
    },
    {
      "inputs": [
        {
          "internalType": "address",
          "name": "from",
          "type": "address"
        },
        {
          "internalType": "address",
          "name": "to",
          "type": "address"
        },
        {
          "internalType": "uint256",
          "name": "tokenId",
          "type": "uint256"
        }
      ],
      "name": "safeTransferFrom",
      "outputs": [],
      "stateMutability": "nonpayable",
      "type": "function"
    },
    {
      "inputs": [
        {
          "internalType": "address",
          "name": "from",
          "type": "address"
        },
        {
          "internalType": "address",
          "name": "to",
          "type": "address"
        },
        {
          "internalType": "uint256",
          "name": "tokenId",
          "type": "uint256"
        },
        {
          "internalType": "bytes",
          "name": "_data",
          "type": "bytes"
        }
      ],
      "name": "safeTransferFrom",
      "outputs": [],
      "stateMutability": "nonpayable",
      "type": "function"
    },
    {
      "inputs": [
        {
          "internalType": "uint256",
          "name": "itemId",
          "type": "uint256"
        },
        {
          "internalType": "uint256",
          "name": "price",
          "type": "uint256"
        }
      ],
      "name": "sellMyNft",
      "outputs": [],
      "stateMutability": "payable",
      "type": "function"
    },
    {
      "inputs": [
        {
          "internalType": "address",
          "name": "from",
          "type": "address"
        },
        {
          "internalType": "address",
          "name": "to",
          "type": "address"
        },
        {
          "internalType": "uint256",
          "name": "tokenId",
          "type": "uint256"
        }
      ],
      "name": "sellToken",
      "outputs": [],
      "stateMutability": "nonpayable",
      "type": "function"
    },
    {
      "inputs": [
        {
          "internalType": "address",
          "name": "operator",
          "type": "address"
        },
        {
          "internalType": "bool",
          "name": "approved",
          "type": "bool"
        }
      ],
      "name": "setApprovalForAll",
      "outputs": [],
      "stateMutability": "nonpayable",
      "type": "function"
    },
    {
      "inputs": [
        {
          "internalType": "bytes4",
          "name": "interfaceId",
          "type": "bytes4"
        }
      ],
      "name": "supportsInterface",
      "outputs": [
        {
          "internalType": "bool",
          "name": "",
          "type": "bool"
        }
      ],
      "stateMutability": "view",
      "type": "function"
    },
    {
      "inputs": [],
      "name": "symbol",
      "outputs": [
        {
          "internalType": "string",
          "name": "",
          "type": "string"
        }
      ],
      "stateMutability": "view",
      "type": "function"
    },
    {
      "inputs": [
        {
          "internalType": "uint256",
          "name": "tokenId",
          "type": "uint256"
        }
      ],
      "name": "tokenURI",
      "outputs": [
        {
          "internalType": "string",
          "name": "",
          "type": "string"
        }
      ],
      "stateMutability": "view",
      "type": "function"
    },
    {
      "inputs": [
        {
          "internalType": "address",
          "name": "from",
          "type": "address"
        },
        {
          "internalType": "address",
          "name": "to",
          "type": "address"
        },
        {
          "internalType": "uint256",
          "name": "tokenId",
          "type": "uint256"
        }
      ],
      "name": "transferFrom",
      "outputs": [],
      "stateMutability": "nonpayable",
      "type": "function"
    }
  ],
  "bytecode": "0x608060405266470de4df820000600d553480156200001c57600080fd5b50306040518060400160405280600c81526020017f5368796e6e20546f6b656e7300000000000000000000000000000000000000008152506040518060400160405280600381526020017f534854000000000000000000000000000000000000000000000000000000000081525060016000819055508160019080519060200190620000aa9291906200014f565b508060029080519060200190620000c39291906200014f565b50505080600960006101000a81548173ffffffffffffffffffffffffffffffffffffffff021916908373ffffffffffffffffffffffffffffffffffffffff1602179055505033600c60006101000a81548173ffffffffffffffffffffffffffffffffffffffff021916908373ffffffffffffffffffffffffffffffffffffffff16021790555062000264565b8280546200015d90620001ff565b90600052602060002090601f016020900481019282620001815760008555620001cd565b82601f106200019c57805160ff1916838001178555620001cd565b82800160010185558215620001cd579182015b82811115620001cc578251825591602001919060010190620001af565b5b509050620001dc9190620001e0565b5090565b5b80821115620001fb576000816000905550600101620001e1565b5090565b600060028204905060018216806200021857607f821691505b602082108114156200022f576200022e62000235565b5b50919050565b7f4e487b7100000000000000000000000000000000000000000000000000000000600052602260045260246000fd5b614a3780620002746000396000f3fe6080604052600436106101355760003560e01c806345576f94116100ab578063986f8ba41161006f578063986f8ba41461041e578063a22cb4651461043a578063b88d4fde14610463578063c87b56dd1461048c578063e985e9c5146104c9578063f064c32e1461050657610135565b806345576f941461032057806358eb2df51461035d5780636352211e1461037957806370a08231146103b657806395d89b41146103f357610135565b806312e85585116100fd57806312e8558514610231578063202e37401461025c57806323b872dd1461028757806329aa3a42146102b0578063310f4104146102db57806342842e0e146102f757610135565b806301ffc9a71461013a57806306dfb93e1461017757806306fdde03146101a0578063081812fc146101cb578063095ea7b314610208575b600080fd5b34801561014657600080fd5b50610161600480360381019061015c9190613580565b610531565b60405161016e9190613c90565b60405180910390f35b34801561018357600080fd5b5061019e600480360381019061019991906133ef565b610613565b005b3480156101ac57600080fd5b506101b5610623565b6040516101c29190613cab565b60405180910390f35b3480156101d757600080fd5b506101f260048036038101906101ed9190613613565b6106b5565b6040516101ff9190613b8b565b60405180910390f35b34801561021457600080fd5b5061022f600480360381019061022a91906134f5565b61073a565b005b34801561023d57600080fd5b50610246610852565b6040516102539190613f9d565b60405180910390f35b34801561026857600080fd5b5061027161085c565b60405161027e9190613c6e565b60405180910390f35b34801561029357600080fd5b506102ae60048036038101906102a991906133ef565b610bf6565b005b3480156102bc57600080fd5b506102c5610c56565b6040516102d29190613c6e565b60405180910390f35b6102f560048036038101906102f0919061363c565b610f6c565b005b34801561030357600080fd5b5061031e600480360381019061031991906133ef565b6111bc565b005b34801561032c57600080fd5b50610347600480360381019061034291906135d2565b6111dc565b6040516103549190613f9d565b60405180910390f35b61037760048036038101906103729190613531565b611240565b005b34801561038557600080fd5b506103a0600480360381019061039b9190613613565b6115a4565b6040516103ad9190613b8b565b60405180910390f35b3480156103c257600080fd5b506103dd60048036038101906103d89190613361565b611656565b6040516103ea9190613f9d565b60405180910390f35b3480156103ff57600080fd5b5061040861170e565b6040516104159190613cab565b60405180910390f35b610438600480360381019061043391906134f5565b6117a0565b005b34801561044657600080fd5b50610461600480360381019061045c91906134b9565b611caa565b005b34801561046f57600080fd5b5061048a6004803603810190610485919061343e565b611cc0565b005b34801561049857600080fd5b506104b360048036038101906104ae9190613613565b611d22565b6040516104c09190613cab565b60405180910390f35b3480156104d557600080fd5b506104f060048036038101906104eb91906133b3565b611d34565b6040516104fd9190613c90565b60405180910390f35b34801561051257600080fd5b5061051b611dc8565b6040516105289190613c6e565b60405180910390f35b60007f80ac58cd000000000000000000000000000000000000000000000000000000007bffffffffffffffffffffffffffffffffffffffffffffffffffffffff1916827bffffffffffffffffffffffffffffffffffffffffffffffffffffffff191614806105fc57507f5b5e139f000000000000000000000000000000000000000000000000000000007bffffffffffffffffffffffffffffffffffffffffffffffffffffffff1916827bffffffffffffffffffffffffffffffffffffffffffffffffffffffff1916145b8061060c575061060b82612162565b5b9050919050565b61061e838383610bf6565b505050565b6060600180546106329061423e565b80601f016020809104026020016040519081016040528092919081815260200182805461065e9061423e565b80156106ab5780601f10610680576101008083540402835291602001916106ab565b820191906000526020600020905b81548152906001019060200180831161068e57829003601f168201915b5050505050905090565b60006106c0826121cc565b6106ff576040517f08c379a00000000000000000000000000000000000000000000000000000000081526004016106f690613e9d565b60405180910390fd5b6005600083815260200190815260200160002060009054906101000a900473ffffffffffffffffffffffffffffffffffffffff169050919050565b6000610745826115a4565b90508073ffffffffffffffffffffffffffffffffffffffff168373ffffffffffffffffffffffffffffffffffffffff1614156107b6576040517f08c379a00000000000000000000000000000000000000000000000000000000081526004016107ad90613efd565b60405180910390fd5b8073ffffffffffffffffffffffffffffffffffffffff166107d5612238565b73ffffffffffffffffffffffffffffffffffffffff1614806108045750610803816107fe612238565b611d34565b5b610843576040517f08c379a000000000000000000000000000000000000000000000000000000000815260040161083a90613dbd565b60405180910390fd5b61084d8383612240565b505050565b6000600d54905090565b6060600061086a600a6122f9565b905060008060005b83811015610913573373ffffffffffffffffffffffffffffffffffffffff16600e60006001846108a291906140bb565b815260200190815260200160002060040160009054906101000a900473ffffffffffffffffffffffffffffffffffffffff1673ffffffffffffffffffffffffffffffffffffffff161415610900576001836108fd91906140bb565b92505b808061090b906142a1565b915050610872565b5060008267ffffffffffffffff811115610956577f4e487b7100000000000000000000000000000000000000000000000000000000600052604160045260246000fd5b60405190808252806020026020018201604052801561098f57816020015b61097c6130ef565b8152602001906001900390816109745790505b50905060005b84811015610beb573373ffffffffffffffffffffffffffffffffffffffff16600e60006001846109c591906140bb565b815260200190815260200160002060040160009054906101000a900473ffffffffffffffffffffffffffffffffffffffff1673ffffffffffffffffffffffffffffffffffffffff161415610bd8576000600182610a2291906140bb565b90506000600e60008381526020019081526020016000209050806040518060e0016040529081600082015481526020016001820160009054906101000a900473ffffffffffffffffffffffffffffffffffffffff1673ffffffffffffffffffffffffffffffffffffffff1673ffffffffffffffffffffffffffffffffffffffff168152602001600282015481526020016003820160009054906101000a900473ffffffffffffffffffffffffffffffffffffffff1673ffffffffffffffffffffffffffffffffffffffff1673ffffffffffffffffffffffffffffffffffffffff1681526020016004820160009054906101000a900473ffffffffffffffffffffffffffffffffffffffff1673ffffffffffffffffffffffffffffffffffffffff1673ffffffffffffffffffffffffffffffffffffffff168152602001600582015481526020016006820160009054906101000a900460ff161515151581525050848681518110610bbb577f4e487b7100000000000000000000000000000000000000000000000000000000600052603260045260246000fd5b6020026020010181905250600185610bd391906140bb565b945050505b8080610be3906142a1565b915050610995565b508094505050505090565b610c07610c01612238565b82612307565b610c46576040517f08c379a0000000000000000000000000000000000000000000000000000000008152600401610c3d90613f3d565b60405180910390fd5b610c518383836123e5565b505050565b60606000610c64600a6122f9565b90506000610c72600b6122f9565b610c7c600a6122f9565b610c869190614142565b90506000808267ffffffffffffffff811115610ccb577f4e487b7100000000000000000000000000000000000000000000000000000000600052604160045260246000fd5b604051908082528060200260200182016040528015610d0457816020015b610cf16130ef565b815260200190600190039081610ce95790505b50905060005b84811015610f6157600073ffffffffffffffffffffffffffffffffffffffff16600e6000600184610d3b91906140bb565b815260200190815260200160002060040160009054906101000a900473ffffffffffffffffffffffffffffffffffffffff1673ffffffffffffffffffffffffffffffffffffffff161415610f4e576000600182610d9891906140bb565b90506000600e60008381526020019081526020016000209050806040518060e0016040529081600082015481526020016001820160009054906101000a900473ffffffffffffffffffffffffffffffffffffffff1673ffffffffffffffffffffffffffffffffffffffff1673ffffffffffffffffffffffffffffffffffffffff168152602001600282015481526020016003820160009054906101000a900473ffffffffffffffffffffffffffffffffffffffff1673ffffffffffffffffffffffffffffffffffffffff1673ffffffffffffffffffffffffffffffffffffffff1681526020016004820160009054906101000a900473ffffffffffffffffffffffffffffffffffffffff1673ffffffffffffffffffffffffffffffffffffffff1673ffffffffffffffffffffffffffffffffffffffff168152602001600582015481526020016006820160009054906101000a900460ff161515151581525050848681518110610f31577f4e487b7100000000000000000000000000000000000000000000000000000000600052603260045260246000fd5b6020026020010181905250600185610f4991906140bb565b945050505b8080610f59906142a1565b915050610d0a565b508094505050505090565b60026000541415610fb2576040517f08c379a0000000000000000000000000000000000000000000000000000000008152600401610fa990613f7d565b60405180910390fd5b60026000819055506000600e600084815260200190815260200160002060020154905060008211611018576040517f08c379a000000000000000000000000000000000000000000000000000000000815260040161100f90613f5d565b60405180910390fd5b600d54341461105c576040517f08c379a000000000000000000000000000000000000000000000000000000000815260040161105390613f1d565b60405180910390fd5b611067333083610613565b6000600e600085815260200190815260200160002060060160006101000a81548160ff02191690831515021790555033600e600085815260200190815260200160002060030160006101000a81548173ffffffffffffffffffffffffffffffffffffffff021916908373ffffffffffffffffffffffffffffffffffffffff1602179055506000600e600085815260200190815260200160002060040160006101000a81548173ffffffffffffffffffffffffffffffffffffffff021916908373ffffffffffffffffffffffffffffffffffffffff16021790555081600e600085815260200190815260200160002060050181905550611166600b612641565b3373ffffffffffffffffffffffffffffffffffffffff166108fc600d549081150290604051600060405180830381858888f193505050501580156111ae573d6000803e3d6000fd5b505060016000819055505050565b6111d783838360405180602001604052806000815250611cc0565b505050565b60006111e8600861269d565b60006111f460086122f9565b905061120033826126b3565b61120a8184612881565b611237600960009054906101000a900473ffffffffffffffffffffffffffffffffffffffff166001611caa565b80915050919050565b60026000541415611286576040517f08c379a000000000000000000000000000000000000000000000000000000000815260040161127d90613f7d565b60405180910390fd5b6002600081905550600081116112d1576040517f08c379a00000000000000000000000000000000000000000000000000000000081526004016112c890613f5d565b60405180910390fd5b600d543414611315576040517f08c379a000000000000000000000000000000000000000000000000000000000815260040161130c90613f1d565b60405180910390fd5b61131f600a61269d565b600061132b600a6122f9565b90506040518060e001604052808281526020018573ffffffffffffffffffffffffffffffffffffffff1681526020018481526020013373ffffffffffffffffffffffffffffffffffffffff168152602001600073ffffffffffffffffffffffffffffffffffffffff16815260200183815260200160001515815250600e60008381526020019081526020016000206000820151816000015560208201518160010160006101000a81548173ffffffffffffffffffffffffffffffffffffffff021916908373ffffffffffffffffffffffffffffffffffffffff1602179055506040820151816002015560608201518160030160006101000a81548173ffffffffffffffffffffffffffffffffffffffff021916908373ffffffffffffffffffffffffffffffffffffffff16021790555060808201518160040160006101000a81548173ffffffffffffffffffffffffffffffffffffffff021916908373ffffffffffffffffffffffffffffffffffffffff16021790555060a0820151816005015560c08201518160060160006101000a81548160ff0219169083151502179055509050508373ffffffffffffffffffffffffffffffffffffffff166323b872dd3330866040518463ffffffff1660e01b815260040161150c93929190613ba6565b600060405180830381600087803b15801561152657600080fd5b505af115801561153a573d6000803e3d6000fd5b50505050828473ffffffffffffffffffffffffffffffffffffffff16827f045dfa01dcba2b36aba1d3dc4a874f4b0c5d2fbeb8d2c4b34a7d88c8d8f929d133600087600060405161158e9493929190613bdd565b60405180910390a4506001600081905550505050565b6000806003600084815260200190815260200160002060009054906101000a900473ffffffffffffffffffffffffffffffffffffffff169050600073ffffffffffffffffffffffffffffffffffffffff168173ffffffffffffffffffffffffffffffffffffffff16141561164d576040517f08c379a000000000000000000000000000000000000000000000000000000000815260040161164490613dfd565b60405180910390fd5b80915050919050565b60008073ffffffffffffffffffffffffffffffffffffffff168273ffffffffffffffffffffffffffffffffffffffff1614156116c7576040517f08c379a00000000000000000000000000000000000000000000000000000000081526004016116be90613ddd565b60405180910390fd5b600460008373ffffffffffffffffffffffffffffffffffffffff1673ffffffffffffffffffffffffffffffffffffffff168152602001908152602001600020549050919050565b60606002805461171d9061423e565b80601f01602080910402602001604051908101604052809291908181526020018280546117499061423e565b80156117965780601f1061176b57610100808354040283529160200191611796565b820191906000526020600020905b81548152906001019060200180831161177957829003601f168201915b5050505050905090565b600260005414156117e6576040517f08c379a00000000000000000000000000000000000000000000000000000000081526004016117dd90613f7d565b60405180910390fd5b600260008190555060008290506000600e60008481526020019081526020016000206005015490506000600e600085815260200190815260200160002060020154905081341461186b576040517f08c379a000000000000000000000000000000000000000000000000000000000815260040161186290613e3d565b60405180910390fd5b6119326040518060400160405280600681526020017f6f776e65722000000000000000000000000000000000000000000000000000008152508673ffffffffffffffffffffffffffffffffffffffff16636352211e846040518263ffffffff1660e01b81526004016118dd9190613f9d565b60206040518083038186803b1580156118f557600080fd5b505afa158015611909573d6000803e3d6000fd5b505050506040513d601f19601f8201168201806040525081019061192d919061338a565b6128f5565b6119716040518060400160405280600781526020017f73656e6465722000000000000000000000000000000000000000000000000000815250336128f5565b6119b06040518060400160405280600781526020017f6d61726b65742000000000000000000000000000000000000000000000000000815250306128f5565b6119ef6040518060400160405280600781526020017f6d61726b65742000000000000000000000000000000000000000000000000000815250866128f5565b611ab66040518060400160405280600981526020017f617070726f7665642000000000000000000000000000000000000000000000008152508673ffffffffffffffffffffffffffffffffffffffff1663081812fc846040518263ffffffff1660e01b8152600401611a619190613f9d565b60206040518083038186803b158015611a7957600080fd5b505afa158015611a8d573d6000803e3d6000fd5b505050506040513d601f19601f82011682018060405250810190611ab1919061338a565b6128f5565b600e600085815260200190815260200160002060030160009054906101000a900473ffffffffffffffffffffffffffffffffffffffff1673ffffffffffffffffffffffffffffffffffffffff166108fc349081150290604051600060405180830381858888f19350505050158015611b32573d6000803e3d6000fd5b5033600e600086815260200190815260200160002060040160006101000a81548173ffffffffffffffffffffffffffffffffffffffff021916908373ffffffffffffffffffffffffffffffffffffffff1602179055506001600e600086815260200190815260200160002060060160006101000a81548160ff021916908315150217905550611bc1600b61269d565b8273ffffffffffffffffffffffffffffffffffffffff166323b872dd3033846040518463ffffffff1660e01b8152600401611bfe93929190613ba6565b600060405180830381600087803b158015611c1857600080fd5b505af1158015611c2c573d6000803e3d6000fd5b50505050600c60009054906101000a900473ffffffffffffffffffffffffffffffffffffffff1673ffffffffffffffffffffffffffffffffffffffff166108fc600d549081150290604051600060405180830381858888f19350505050158015611c9a573d6000803e3d6000fd5b5050505060016000819055505050565b611cbc611cb5612238565b8383612991565b5050565b611cd1611ccb612238565b83612307565b611d10576040517f08c379a0000000000000000000000000000000000000000000000000000000008152600401611d0790613f3d565b60405180910390fd5b611d1c84848484612afe565b50505050565b6060611d2d82612b5a565b9050919050565b6000600660008473ffffffffffffffffffffffffffffffffffffffff1673ffffffffffffffffffffffffffffffffffffffff16815260200190815260200160002060008373ffffffffffffffffffffffffffffffffffffffff1673ffffffffffffffffffffffffffffffffffffffff16815260200190815260200160002060009054906101000a900460ff16905092915050565b60606000611dd6600a6122f9565b905060008060005b83811015611e7f573373ffffffffffffffffffffffffffffffffffffffff16600e6000600184611e0e91906140bb565b815260200190815260200160002060030160009054906101000a900473ffffffffffffffffffffffffffffffffffffffff1673ffffffffffffffffffffffffffffffffffffffff161415611e6c57600183611e6991906140bb565b92505b8080611e77906142a1565b915050611dde565b5060008267ffffffffffffffff811115611ec2577f4e487b7100000000000000000000000000000000000000000000000000000000600052604160045260246000fd5b604051908082528060200260200182016040528015611efb57816020015b611ee86130ef565b815260200190600190039081611ee05790505b50905060005b84811015612157573373ffffffffffffffffffffffffffffffffffffffff16600e6000600184611f3191906140bb565b815260200190815260200160002060030160009054906101000a900473ffffffffffffffffffffffffffffffffffffffff1673ffffffffffffffffffffffffffffffffffffffff161415612144576000600182611f8e91906140bb565b90506000600e60008381526020019081526020016000209050806040518060e0016040529081600082015481526020016001820160009054906101000a900473ffffffffffffffffffffffffffffffffffffffff1673ffffffffffffffffffffffffffffffffffffffff1673ffffffffffffffffffffffffffffffffffffffff168152602001600282015481526020016003820160009054906101000a900473ffffffffffffffffffffffffffffffffffffffff1673ffffffffffffffffffffffffffffffffffffffff1673ffffffffffffffffffffffffffffffffffffffff1681526020016004820160009054906101000a900473ffffffffffffffffffffffffffffffffffffffff1673ffffffffffffffffffffffffffffffffffffffff1673ffffffffffffffffffffffffffffffffffffffff168152602001600582015481526020016006820160009054906101000a900460ff161515151581525050848681518110612127577f4e487b7100000000000000000000000000000000000000000000000000000000600052603260045260246000fd5b602002602001018190525060018561213f91906140bb565b945050505b808061214f906142a1565b915050611f01565b508094505050505090565b60007f01ffc9a7000000000000000000000000000000000000000000000000000000007bffffffffffffffffffffffffffffffffffffffffffffffffffffffff1916827bffffffffffffffffffffffffffffffffffffffffffffffffffffffff1916149050919050565b60008073ffffffffffffffffffffffffffffffffffffffff166003600084815260200190815260200160002060009054906101000a900473ffffffffffffffffffffffffffffffffffffffff1673ffffffffffffffffffffffffffffffffffffffff1614159050919050565b600033905090565b816005600083815260200190815260200160002060006101000a81548173ffffffffffffffffffffffffffffffffffffffff021916908373ffffffffffffffffffffffffffffffffffffffff160217905550808273ffffffffffffffffffffffffffffffffffffffff166122b3836115a4565b73ffffffffffffffffffffffffffffffffffffffff167f8c5be1e5ebec7d5bd14f71427d1e84f3dd0314c0f7b2291e5b200ac8c7c3b92560405160405180910390a45050565b600081600001549050919050565b6000612312826121cc565b612351576040517f08c379a000000000000000000000000000000000000000000000000000000000815260040161234890613d9d565b60405180910390fd5b600061235c836115a4565b90508073ffffffffffffffffffffffffffffffffffffffff168473ffffffffffffffffffffffffffffffffffffffff1614806123cb57508373ffffffffffffffffffffffffffffffffffffffff166123b3846106b5565b73ffffffffffffffffffffffffffffffffffffffff16145b806123dc57506123db8185611d34565b5b91505092915050565b8273ffffffffffffffffffffffffffffffffffffffff16612405826115a4565b73ffffffffffffffffffffffffffffffffffffffff161461245b576040517f08c379a000000000000000000000000000000000000000000000000000000000815260040161245290613ebd565b60405180910390fd5b600073ffffffffffffffffffffffffffffffffffffffff168273ffffffffffffffffffffffffffffffffffffffff1614156124cb576040517f08c379a00000000000000000000000000000000000000000000000000000000081526004016124c290613d5d565b60405180910390fd5b6124d6838383612cac565b6124e1600082612240565b6001600460008573ffffffffffffffffffffffffffffffffffffffff1673ffffffffffffffffffffffffffffffffffffffff16815260200190815260200160002060008282546125319190614142565b925050819055506001600460008473ffffffffffffffffffffffffffffffffffffffff1673ffffffffffffffffffffffffffffffffffffffff168152602001908152602001600020600082825461258891906140bb565b92505081905550816003600083815260200190815260200160002060006101000a81548173ffffffffffffffffffffffffffffffffffffffff021916908373ffffffffffffffffffffffffffffffffffffffff160217905550808273ffffffffffffffffffffffffffffffffffffffff168473ffffffffffffffffffffffffffffffffffffffff167fddf252ad1be2c89b69c2b068fc378daa952ba7f163c4a11628f55a4df523b3ef60405160405180910390a4505050565b6000816000015490506000811161268d576040517f08c379a000000000000000000000000000000000000000000000000000000000815260040161268490613cfd565b60405180910390fd5b6001810382600001819055505050565b6001816000016000828254019250508190555050565b600073ffffffffffffffffffffffffffffffffffffffff168273ffffffffffffffffffffffffffffffffffffffff161415612723576040517f08c379a000000000000000000000000000000000000000000000000000000000815260040161271a90613e5d565b60405180910390fd5b61272c816121cc565b1561276c576040517f08c379a000000000000000000000000000000000000000000000000000000000815260040161276390613d3d565b60405180910390fd5b61277860008383612cac565b6001600460008473ffffffffffffffffffffffffffffffffffffffff1673ffffffffffffffffffffffffffffffffffffffff16815260200190815260200160002060008282546127c891906140bb565b92505081905550816003600083815260200190815260200160002060006101000a81548173ffffffffffffffffffffffffffffffffffffffff021916908373ffffffffffffffffffffffffffffffffffffffff160217905550808273ffffffffffffffffffffffffffffffffffffffff16600073ffffffffffffffffffffffffffffffffffffffff167fddf252ad1be2c89b69c2b068fc378daa952ba7f163c4a11628f55a4df523b3ef60405160405180910390a45050565b61288a826121cc565b6128c9576040517f08c379a00000000000000000000000000000000000000000000000000000000081526004016128c090613e1d565b60405180910390fd5b806007600084815260200190815260200160002090805190602001906128f0929190613170565b505050565b61298d828260405160240161290b929190613ccd565b6040516020818303038152906040527f319af333000000000000000000000000000000000000000000000000000000007bffffffffffffffffffffffffffffffffffffffffffffffffffffffff19166020820180517bffffffffffffffffffffffffffffffffffffffffffffffffffffffff8381831617835250505050612cb1565b5050565b8173ffffffffffffffffffffffffffffffffffffffff168373ffffffffffffffffffffffffffffffffffffffff161415612a00576040517f08c379a00000000000000000000000000000000000000000000000000000000081526004016129f790613d7d565b60405180910390fd5b80600660008573ffffffffffffffffffffffffffffffffffffffff1673ffffffffffffffffffffffffffffffffffffffff16815260200190815260200160002060008473ffffffffffffffffffffffffffffffffffffffff1673ffffffffffffffffffffffffffffffffffffffff16815260200190815260200160002060006101000a81548160ff0219169083151502179055508173ffffffffffffffffffffffffffffffffffffffff168373ffffffffffffffffffffffffffffffffffffffff167f17307eab39ab6107e8899845ad3d59bd9653f200f220920489ca2b5937696c3183604051612af19190613c90565b60405180910390a3505050565b612b098484846123e5565b612b1584848484612cda565b612b54576040517f08c379a0000000000000000000000000000000000000000000000000000000008152600401612b4b90613d1d565b60405180910390fd5b50505050565b6060612b65826121cc565b612ba4576040517f08c379a0000000000000000000000000000000000000000000000000000000008152600401612b9b90613e7d565b60405180910390fd5b6000600760008481526020019081526020016000208054612bc49061423e565b80601f0160208091040260200160405190810160405280929190818152602001828054612bf09061423e565b8015612c3d5780601f10612c1257610100808354040283529160200191612c3d565b820191906000526020600020905b815481529060010190602001808311612c2057829003601f168201915b505050505090506000612c4e612e71565b9050600081511415612c64578192505050612ca7565b600082511115612c99578082604051602001612c81929190613b67565b60405160208183030381529060405292505050612ca7565b612ca284612e88565b925050505b919050565b505050565b60008151905060006a636f6e736f6c652e6c6f679050602083016000808483855afa5050505050565b6000612cfb8473ffffffffffffffffffffffffffffffffffffffff16612f2f565b15612e64578373ffffffffffffffffffffffffffffffffffffffff1663150b7a02612d24612238565b8786866040518563ffffffff1660e01b8152600401612d469493929190613c22565b602060405180830381600087803b158015612d6057600080fd5b505af1925050508015612d9157506040513d601f19601f82011682018060405250810190612d8e91906135a9565b60015b612e14573d8060008114612dc1576040519150601f19603f3d011682016040523d82523d6000602084013e612dc6565b606091505b50600081511415612e0c576040517f08c379a0000000000000000000000000000000000000000000000000000000008152600401612e0390613d1d565b60405180910390fd5b805181602001fd5b63150b7a0260e01b7bffffffffffffffffffffffffffffffffffffffffffffffffffffffff1916817bffffffffffffffffffffffffffffffffffffffffffffffffffffffff191614915050612e69565b600190505b949350505050565b606060405180602001604052806000815250905090565b6060612e93826121cc565b612ed2576040517f08c379a0000000000000000000000000000000000000000000000000000000008152600401612ec990613edd565b60405180910390fd5b6000612edc612e71565b90506000815111612efc5760405180602001604052806000815250612f27565b80612f0684612f42565b604051602001612f17929190613b67565b6040516020818303038152906040525b915050919050565b600080823b905060008111915050919050565b60606000821415612f8a576040518060400160405280600181526020017f300000000000000000000000000000000000000000000000000000000000000081525090506130ea565b600082905060005b60008214612fbc578080612fa5906142a1565b915050600a82612fb59190614111565b9150612f92565b60008167ffffffffffffffff811115612ffe577f4e487b7100000000000000000000000000000000000000000000000000000000600052604160045260246000fd5b6040519080825280601f01601f1916602001820160405280156130305781602001600182028036833780820191505090505b5090505b600085146130e3576001826130499190614142565b9150600a8561305891906142ea565b603061306491906140bb565b60f81b8183815181106130a0577f4e487b7100000000000000000000000000000000000000000000000000000000600052603260045260246000fd5b60200101907effffffffffffffffffffffffffffffffffffffffffffffffffffffffffffff1916908160001a905350600a856130dc9190614111565b9450613034565b8093505050505b919050565b6040518060e0016040528060008152602001600073ffffffffffffffffffffffffffffffffffffffff16815260200160008152602001600073ffffffffffffffffffffffffffffffffffffffff168152602001600073ffffffffffffffffffffffffffffffffffffffff168152602001600081526020016000151581525090565b82805461317c9061423e565b90600052602060002090601f01602090048101928261319e57600085556131e5565b82601f106131b757805160ff19168380011785556131e5565b828001600101855582156131e5579182015b828111156131e45782518255916020019190600101906131c9565b5b5090506131f291906131f6565b5090565b5b8082111561320f5760008160009055506001016131f7565b5090565b600061322661322184613fdd565b613fb8565b90508281526020810184848401111561323e57600080fd5b6132498482856141fc565b509392505050565b600061326461325f8461400e565b613fb8565b90508281526020810184848401111561327c57600080fd5b6132878482856141fc565b509392505050565b60008135905061329e816149a5565b92915050565b6000815190506132b3816149a5565b92915050565b6000813590506132c8816149bc565b92915050565b6000813590506132dd816149d3565b92915050565b6000815190506132f2816149d3565b92915050565b600082601f83011261330957600080fd5b8135613319848260208601613213565b91505092915050565b600082601f83011261333357600080fd5b8135613343848260208601613251565b91505092915050565b60008135905061335b816149ea565b92915050565b60006020828403121561337357600080fd5b60006133818482850161328f565b91505092915050565b60006020828403121561339c57600080fd5b60006133aa848285016132a4565b91505092915050565b600080604083850312156133c657600080fd5b60006133d48582860161328f565b92505060206133e58582860161328f565b9150509250929050565b60008060006060848603121561340457600080fd5b60006134128682870161328f565b93505060206134238682870161328f565b92505060406134348682870161334c565b9150509250925092565b6000806000806080858703121561345457600080fd5b60006134628782880161328f565b94505060206134738782880161328f565b93505060406134848782880161334c565b925050606085013567ffffffffffffffff8111156134a157600080fd5b6134ad878288016132f8565b91505092959194509250565b600080604083850312156134cc57600080fd5b60006134da8582860161328f565b92505060206134eb858286016132b9565b9150509250929050565b6000806040838503121561350857600080fd5b60006135168582860161328f565b92505060206135278582860161334c565b9150509250929050565b60008060006060848603121561354657600080fd5b60006135548682870161328f565b93505060206135658682870161334c565b92505060406135768682870161334c565b9150509250925092565b60006020828403121561359257600080fd5b60006135a0848285016132ce565b91505092915050565b6000602082840312156135bb57600080fd5b60006135c9848285016132e3565b91505092915050565b6000602082840312156135e457600080fd5b600082013567ffffffffffffffff8111156135fe57600080fd5b61360a84828501613322565b91505092915050565b60006020828403121561362557600080fd5b60006136338482850161334c565b91505092915050565b6000806040838503121561364f57600080fd5b600061365d8582860161334c565b925050602061366e8582860161334c565b9150509250929050565b60006136848383613abb565b60e08301905092915050565b61369981614188565b82525050565b6136a881614176565b82525050565b6136b781614176565b82525050565b60006136c88261404f565b6136d2818561407d565b93506136dd8361403f565b8060005b8381101561370e5781516136f58882613678565b975061370083614070565b9250506001810190506136e1565b5085935050505092915050565b6137248161419a565b82525050565b6137338161419a565b82525050565b60006137448261405a565b61374e818561408e565b935061375e81856020860161420b565b613767816143d7565b840191505092915050565b600061377d82614065565b613787818561409f565b935061379781856020860161420b565b6137a0816143d7565b840191505092915050565b60006137b682614065565b6137c081856140b0565b93506137d081856020860161420b565b80840191505092915050565b60006137e9601b8361409f565b91506137f4826143e8565b602082019050919050565b600061380c60328361409f565b915061381782614411565b604082019050919050565b600061382f601c8361409f565b915061383a82614460565b602082019050919050565b600061385260248361409f565b915061385d82614489565b604082019050919050565b600061387560198361409f565b9150613880826144d8565b602082019050919050565b6000613898602c8361409f565b91506138a382614501565b604082019050919050565b60006138bb60388361409f565b91506138c682614550565b604082019050919050565b60006138de602a8361409f565b91506138e98261459f565b604082019050919050565b600061390160298361409f565b915061390c826145ee565b604082019050919050565b6000613924602e8361409f565b915061392f8261463d565b604082019050919050565b600061394760408361409f565b91506139528261468c565b604082019050919050565b600061396a60208361409f565b9150613975826146db565b602082019050919050565b600061398d60318361409f565b915061399882614704565b604082019050919050565b60006139b0602c8361409f565b91506139bb82614753565b604082019050919050565b60006139d360298361409f565b91506139de826147a2565b604082019050919050565b60006139f6602f8361409f565b9150613a01826147f1565b604082019050919050565b6000613a1960218361409f565b9150613a2482614840565b604082019050919050565b6000613a3c60248361409f565b9150613a478261488f565b604082019050919050565b6000613a5f60318361409f565b9150613a6a826148de565b604082019050919050565b6000613a8260248361409f565b9150613a8d8261492d565b604082019050919050565b6000613aa5601f8361409f565b9150613ab08261497c565b602082019050919050565b60e082016000820151613ad16000850182613b49565b506020820151613ae4602085018261369f565b506040820151613af76040850182613b49565b506060820151613b0a6060850182613690565b506080820151613b1d6080850182613690565b5060a0820151613b3060a0850182613b49565b5060c0820151613b4360c085018261371b565b50505050565b613b52816141f2565b82525050565b613b61816141f2565b82525050565b6000613b7382856137ab565b9150613b7f82846137ab565b91508190509392505050565b6000602082019050613ba060008301846136ae565b92915050565b6000606082019050613bbb60008301866136ae565b613bc860208301856136ae565b613bd56040830184613b58565b949350505050565b6000608082019050613bf260008301876136ae565b613bff60208301866136ae565b613c0c6040830185613b58565b613c19606083018461372a565b95945050505050565b6000608082019050613c3760008301876136ae565b613c4460208301866136ae565b613c516040830185613b58565b8181036060830152613c638184613739565b905095945050505050565b60006020820190508181036000830152613c8881846136bd565b905092915050565b6000602082019050613ca5600083018461372a565b92915050565b60006020820190508181036000830152613cc58184613772565b905092915050565b60006040820190508181036000830152613ce78185613772565b9050613cf660208301846136ae565b9392505050565b60006020820190508181036000830152613d16816137dc565b9050919050565b60006020820190508181036000830152613d36816137ff565b9050919050565b60006020820190508181036000830152613d5681613822565b9050919050565b60006020820190508181036000830152613d7681613845565b9050919050565b60006020820190508181036000830152613d9681613868565b9050919050565b60006020820190508181036000830152613db68161388b565b9050919050565b60006020820190508181036000830152613dd6816138ae565b9050919050565b60006020820190508181036000830152613df6816138d1565b9050919050565b60006020820190508181036000830152613e16816138f4565b9050919050565b60006020820190508181036000830152613e3681613917565b9050919050565b60006020820190508181036000830152613e568161393a565b9050919050565b60006020820190508181036000830152613e768161395d565b9050919050565b60006020820190508181036000830152613e9681613980565b9050919050565b60006020820190508181036000830152613eb6816139a3565b9050919050565b60006020820190508181036000830152613ed6816139c6565b9050919050565b60006020820190508181036000830152613ef6816139e9565b9050919050565b60006020820190508181036000830152613f1681613a0c565b9050919050565b60006020820190508181036000830152613f3681613a2f565b9050919050565b60006020820190508181036000830152613f5681613a52565b9050919050565b60006020820190508181036000830152613f7681613a75565b9050919050565b60006020820190508181036000830152613f9681613a98565b9050919050565b6000602082019050613fb26000830184613b58565b92915050565b6000613fc2613fd3565b9050613fce8282614270565b919050565b6000604051905090565b600067ffffffffffffffff821115613ff857613ff76143a8565b5b614001826143d7565b9050602081019050919050565b600067ffffffffffffffff821115614029576140286143a8565b5b614032826143d7565b9050602081019050919050565b6000819050602082019050919050565b600081519050919050565b600081519050919050565b600081519050919050565b6000602082019050919050565b600082825260208201905092915050565b600082825260208201905092915050565b600082825260208201905092915050565b600081905092915050565b60006140c6826141f2565b91506140d1836141f2565b9250827fffffffffffffffffffffffffffffffffffffffffffffffffffffffffffffffff038211156141065761410561431b565b5b828201905092915050565b600061411c826141f2565b9150614127836141f2565b9250826141375761413661434a565b5b828204905092915050565b600061414d826141f2565b9150614158836141f2565b92508282101561416b5761416a61431b565b5b828203905092915050565b6000614181826141d2565b9050919050565b6000614193826141d2565b9050919050565b60008115159050919050565b60007fffffffff0000000000000000000000000000000000000000000000000000000082169050919050565b600073ffffffffffffffffffffffffffffffffffffffff82169050919050565b6000819050919050565b82818337600083830152505050565b60005b8381101561422957808201518184015260208101905061420e565b83811115614238576000848401525b50505050565b6000600282049050600182168061425657607f821691505b6020821081141561426a57614269614379565b5b50919050565b614279826143d7565b810181811067ffffffffffffffff82111715614298576142976143a8565b5b80604052505050565b60006142ac826141f2565b91507fffffffffffffffffffffffffffffffffffffffffffffffffffffffffffffffff8214156142df576142de61431b565b5b600182019050919050565b60006142f5826141f2565b9150614300836141f2565b9250826143105761430f61434a565b5b828206905092915050565b7f4e487b7100000000000000000000000000000000000000000000000000000000600052601160045260246000fd5b7f4e487b7100000000000000000000000000000000000000000000000000000000600052601260045260246000fd5b7f4e487b7100000000000000000000000000000000000000000000000000000000600052602260045260246000fd5b7f4e487b7100000000000000000000000000000000000000000000000000000000600052604160045260246000fd5b6000601f19601f8301169050919050565b7f436f756e7465723a2064656372656d656e74206f766572666c6f770000000000600082015250565b7f4552433732313a207472616e7366657220746f206e6f6e20455243373231526560008201527f63656976657220696d706c656d656e7465720000000000000000000000000000602082015250565b7f4552433732313a20746f6b656e20616c7265616479206d696e74656400000000600082015250565b7f4552433732313a207472616e7366657220746f20746865207a65726f2061646460008201527f7265737300000000000000000000000000000000000000000000000000000000602082015250565b7f4552433732313a20617070726f766520746f2063616c6c657200000000000000600082015250565b7f4552433732313a206f70657261746f7220717565727920666f72206e6f6e657860008201527f697374656e7420746f6b656e0000000000000000000000000000000000000000602082015250565b7f4552433732313a20617070726f76652063616c6c6572206973206e6f74206f7760008201527f6e6572206e6f7220617070726f76656420666f7220616c6c0000000000000000602082015250565b7f4552433732313a2062616c616e636520717565727920666f7220746865207a6560008201527f726f206164647265737300000000000000000000000000000000000000000000602082015250565b7f4552433732313a206f776e657220717565727920666f72206e6f6e657869737460008201527f656e7420746f6b656e0000000000000000000000000000000000000000000000602082015250565b7f45524337323155524953746f726167653a2055524920736574206f66206e6f6e60008201527f6578697374656e7420746f6b656e000000000000000000000000000000000000602082015250565b7f506c65617365207375626d6974207468652061736b696e67207072696365206960008201527f6e206f7264657220746f20636f6d706c65746520746865207075726368617365602082015250565b7f4552433732313a206d696e7420746f20746865207a65726f2061646472657373600082015250565b7f45524337323155524953746f726167653a2055524920717565727920666f722060008201527f6e6f6e6578697374656e7420746f6b656e000000000000000000000000000000602082015250565b7f4552433732313a20617070726f76656420717565727920666f72206e6f6e657860008201527f697374656e7420746f6b656e0000000000000000000000000000000000000000602082015250565b7f4552433732313a207472616e73666572206f6620746f6b656e2074686174206960008201527f73206e6f74206f776e0000000000000000000000000000000000000000000000602082015250565b7f4552433732314d657461646174613a2055524920717565727920666f72206e6f60008201527f6e6578697374656e7420746f6b656e0000000000000000000000000000000000602082015250565b7f4552433732313a20617070726f76616c20746f2063757272656e74206f776e6560008201527f7200000000000000000000000000000000000000000000000000000000000000602082015250565b7f5072696365206d75737420626520657175616c20746f206c697374696e67207060008201527f7269636500000000000000000000000000000000000000000000000000000000602082015250565b7f4552433732313a207472616e736665722063616c6c6572206973206e6f74206f60008201527f776e6572206e6f7220617070726f766564000000000000000000000000000000602082015250565b7f5072696365206f66206974656d206d757374206265206174206c65617374203160008201527f2077656900000000000000000000000000000000000000000000000000000000602082015250565b7f5265656e7472616e637947756172643a207265656e7472616e742063616c6c00600082015250565b6149ae81614176565b81146149b957600080fd5b50565b6149c58161419a565b81146149d057600080fd5b50565b6149dc816141a6565b81146149e757600080fd5b50565b6149f3816141f2565b81146149fe57600080fd5b5056fea264697066735822122003cdfcd5a74c2a9726b23b4b0d6bc14bab75f4e5a9729c818723fe08cd39be0764736f6c63430008040033",
  "linkReferences": {},
  "deployedLinkReferences": {}
}