{
  "_format": "hh-sol-artifact-1",
  "contractName": "NFT",
  "sourceName": "contracts/NFT.sol",
  "abi": [
    {
      "inputs": [
        {
          "internalType": "address",
          "name": "marketAddress",
          "type": "address"
        }
      ],
      "stateMutability": "nonpayable",
      "type": "constructor"
    },
    {
      "anonymous": false,
      "inputs": [
        {
          "indexed": true,
          "internalType": "address",
          "name": "owner",
          "type": "address"
        },
        {
          "indexed": true,
          "internalType": "address",
          "name": "approved",
          "type": "address"
        },
        {
          "indexed": true,
          "internalType": "uint256",
          "name": "tokenId",
          "type": "uint256"
        }
      ],
      "name": "Approval",
      "type": "event"
    },
    {
      "anonymous": false,
      "inputs": [
        {
          "indexed": true,
          "internalType": "address",
          "name": "owner",
          "type": "address"
        },
        {
          "indexed": true,
          "internalType": "address",
          "name": "operator",
          "type": "address"
        },
        {
          "indexed": false,
          "internalType": "bool",
          "name": "approved",
          "type": "bool"
        }
      ],
      "name": "ApprovalForAll",
      "type": "event"
    },
    {
      "anonymous": false,
      "inputs": [
        {
          "indexed": true,
          "internalType": "address",
          "name": "from",
          "type": "address"
        },
        {
          "indexed": true,
          "internalType": "address",
          "name": "to",
          "type": "address"
        },
        {
          "indexed": true,
          "internalType": "uint256",
          "name": "tokenId",
          "type": "uint256"
        }
      ],
      "name": "Transfer",
      "type": "event"
    },
    {
      "inputs": [
        {
          "internalType": "address",
          "name": "to",
          "type": "address"
        },
        {
          "internalType": "uint256",
          "name": "tokenId",
          "type": "uint256"
        }
      ],
      "name": "approve",
      "outputs": [],
      "stateMutability": "nonpayable",
      "type": "function"
    },
    {
      "inputs": [
        {
          "internalType": "address",
          "name": "owner",
          "type": "address"
        }
      ],
      "name": "balanceOf",
      "outputs": [
        {
          "internalType": "uint256",
          "name": "",
          "type": "uint256"
        }
      ],
      "stateMutability": "view",
      "type": "function"
    },
    {
      "inputs": [
        {
          "internalType": "string",
          "name": "tokenUri",
          "type": "string"
        }
      ],
      "name": "createToken",
      "outputs": [
        {
          "internalType": "uint256",
          "name": "",
          "type": "uint256"
        }
      ],
      "stateMutability": "nonpayable",
      "type": "function"
    },
    {
      "inputs": [
        {
          "internalType": "uint256",
          "name": "tokenId",
          "type": "uint256"
        }
      ],
      "name": "getApproved",
      "outputs": [
        {
          "internalType": "address",
          "name": "",
          "type": "address"
        }
      ],
      "stateMutability": "view",
      "type": "function"
    },
    {
      "inputs": [
        {
          "internalType": "address",
          "name": "owner",
          "type": "address"
        },
        {
          "internalType": "address",
          "name": "operator",
          "type": "address"
        }
      ],
      "name": "isApprovedForAll",
      "outputs": [
        {
          "internalType": "bool",
          "name": "",
          "type": "bool"
        }
      ],
      "stateMutability": "view",
      "type": "function"
    },
    {
      "inputs": [],
      "name": "name",
      "outputs": [
        {
          "internalType": "string",
          "name": "",
          "type": "string"
        }
      ],
      "stateMutability": "view",
      "type": "function"
    },
    {
      "inputs": [
        {
          "internalType": "uint256",
          "name": "tokenId",
          "type": "uint256"
        }
      ],
      "name": "ownerOf",
      "outputs": [
        {
          "internalType": "address",
          "name": "",
          "type": "address"
        }
      ],
      "stateMutability": "view",
      "type": "function"
    },
    {
      "inputs": [
        {
          "internalType": "address",
          "name": "from",
          "type": "address"
        },
        {
          "internalType": "address",
          "name": "to",
          "type": "address"
        },
        {
          "internalType": "uint256",
          "name": "tokenId",
          "type": "uint256"
        }
      ],
      "name": "safeTransferFrom",
      "outputs": [],
      "stateMutability": "nonpayable",
      "type": "function"
    },
    {
      "inputs": [
        {
          "internalType": "address",
          "name": "from",
          "type": "address"
        },
        {
          "internalType": "address",
          "name": "to",
          "type": "address"
        },
        {
          "internalType": "uint256",
          "name": "tokenId",
          "type": "uint256"
        },
        {
          "internalType": "bytes",
          "name": "_data",
          "type": "bytes"
        }
      ],
      "name": "safeTransferFrom",
      "outputs": [],
      "stateMutability": "nonpayable",
      "type": "function"
    },
    {
      "inputs": [
        {
          "internalType": "address",
          "name": "from",
          "type": "address"
        },
        {
          "internalType": "address",
          "name": "to",
          "type": "address"
        },
        {
          "internalType": "uint256",
          "name": "tokenId",
          "type": "uint256"
        }
      ],
      "name": "sellToken",
      "outputs": [],
      "stateMutability": "nonpayable",
      "type": "function"
    },
    {
      "inputs": [
        {
          "internalType": "address",
          "name": "operator",
          "type": "address"
        },
        {
          "internalType": "bool",
          "name": "approved",
          "type": "bool"
        }
      ],
      "name": "setApprovalForAll",
      "outputs": [],
      "stateMutability": "nonpayable",
      "type": "function"
    },
    {
      "inputs": [
        {
          "internalType": "bytes4",
          "name": "interfaceId",
          "type": "bytes4"
        }
      ],
      "name": "supportsInterface",
      "outputs": [
        {
          "internalType": "bool",
          "name": "",
          "type": "bool"
        }
      ],
      "stateMutability": "view",
      "type": "function"
    },
    {
      "inputs": [],
      "name": "symbol",
      "outputs": [
        {
          "internalType": "string",
          "name": "",
          "type": "string"
        }
      ],
      "stateMutability": "view",
      "type": "function"
    },
    {
      "inputs": [
        {
          "internalType": "uint256",
          "name": "tokenId",
          "type": "uint256"
        }
      ],
      "name": "tokenURI",
      "outputs": [
        {
          "internalType": "string",
          "name": "",
          "type": "string"
        }
      ],
      "stateMutability": "view",
      "type": "function"
    },
    {
      "inputs": [
        {
          "internalType": "address",
          "name": "from",
          "type": "address"
        },
        {
          "internalType": "address",
          "name": "to",
          "type": "address"
        },
        {
          "internalType": "uint256",
          "name": "tokenId",
          "type": "uint256"
        }
      ],
      "name": "transferFrom",
      "outputs": [],
      "stateMutability": "nonpayable",
      "type": "function"
    }
  ],
  "bytecode": "0x60806040523480156200001157600080fd5b5060405162002ea538038062002ea58339818101604052810190620000379190620001e6565b6040518060400160405280600c81526020017f5368796e6e20546f6b656e7300000000000000000000000000000000000000008152506040518060400160405280600381526020017f53485400000000000000000000000000000000000000000000000000000000008152508160009080519060200190620000bb9291906200011f565b508060019080519060200190620000d49291906200011f565b50505080600860006101000a81548173ffffffffffffffffffffffffffffffffffffffff021916908373ffffffffffffffffffffffffffffffffffffffff16021790555050620002c5565b8280546200012d9062000246565b90600052602060002090601f0160209004810192826200015157600085556200019d565b82601f106200016c57805160ff19168380011785556200019d565b828001600101855582156200019d579182015b828111156200019c5782518255916020019190600101906200017f565b5b509050620001ac9190620001b0565b5090565b5b80821115620001cb576000816000905550600101620001b1565b5090565b600081519050620001e081620002ab565b92915050565b600060208284031215620001f957600080fd5b60006200020984828501620001cf565b91505092915050565b60006200021f8262000226565b9050919050565b600073ffffffffffffffffffffffffffffffffffffffff82169050919050565b600060028204905060018216806200025f57607f821691505b602082108114156200027657620002756200027c565b5b50919050565b7f4e487b7100000000000000000000000000000000000000000000000000000000600052602260045260246000fd5b620002b68162000212565b8114620002c257600080fd5b50565b612bd080620002d56000396000f3fe608060405234801561001057600080fd5b50600436106100f55760003560e01c806345576f9411610097578063a22cb46511610066578063a22cb46514610296578063b88d4fde146102b2578063c87b56dd146102ce578063e985e9c5146102fe576100f5565b806345576f94146101e85780636352211e1461021857806370a082311461024857806395d89b4114610278576100f5565b8063081812fc116100d3578063081812fc14610164578063095ea7b31461019457806323b872dd146101b057806342842e0e146101cc576100f5565b806301ffc9a7146100fa57806306dfb93e1461012a57806306fdde0314610146575b600080fd5b610114600480360381019061010f9190611c3c565b61032e565b6040516101219190612083565b60405180910390f35b610144600480360381019061013f9190611afa565b610410565b005b61014e610420565b60405161015b919061209e565b60405180910390f35b61017e60048036038101906101799190611ccf565b6104b2565b60405161018b919061201c565b60405180910390f35b6101ae60048036038101906101a99190611c00565b610537565b005b6101ca60048036038101906101c59190611afa565b61064f565b005b6101e660048036038101906101e19190611afa565b6106af565b005b61020260048036038101906101fd9190611c8e565b6106cf565b60405161020f91906122c0565b60405180910390f35b610232600480360381019061022d9190611ccf565b610733565b60405161023f919061201c565b60405180910390f35b610262600480360381019061025d9190611a95565b6107e5565b60405161026f91906122c0565b60405180910390f35b61028061089d565b60405161028d919061209e565b60405180910390f35b6102b060048036038101906102ab9190611bc4565b61092f565b005b6102cc60048036038101906102c79190611b49565b610945565b005b6102e860048036038101906102e39190611ccf565b6109a7565b6040516102f5919061209e565b60405180910390f35b61031860048036038101906103139190611abe565b6109b9565b6040516103259190612083565b60405180910390f35b60007f80ac58cd000000000000000000000000000000000000000000000000000000007bffffffffffffffffffffffffffffffffffffffffffffffffffffffff1916827bffffffffffffffffffffffffffffffffffffffffffffffffffffffff191614806103f957507f5b5e139f000000000000000000000000000000000000000000000000000000007bffffffffffffffffffffffffffffffffffffffffffffffffffffffff1916827bffffffffffffffffffffffffffffffffffffffffffffffffffffffff1916145b80610409575061040882610a4d565b5b9050919050565b61041b83838361064f565b505050565b60606000805461042f90612516565b80601f016020809104026020016040519081016040528092919081815260200182805461045b90612516565b80156104a85780601f1061047d576101008083540402835291602001916104a8565b820191906000526020600020905b81548152906001019060200180831161048b57829003601f168201915b5050505050905090565b60006104bd82610ab7565b6104fc576040517f08c379a00000000000000000000000000000000000000000000000000000000081526004016104f390612220565b60405180910390fd5b6004600083815260200190815260200160002060009054906101000a900473ffffffffffffffffffffffffffffffffffffffff169050919050565b600061054282610733565b90508073ffffffffffffffffffffffffffffffffffffffff168373ffffffffffffffffffffffffffffffffffffffff1614156105b3576040517f08c379a00000000000000000000000000000000000000000000000000000000081526004016105aa90612280565b60405180910390fd5b8073ffffffffffffffffffffffffffffffffffffffff166105d2610b23565b73ffffffffffffffffffffffffffffffffffffffff1614806106015750610600816105fb610b23565b6109b9565b5b610640576040517f08c379a000000000000000000000000000000000000000000000000000000000815260040161063790612160565b60405180910390fd5b61064a8383610b2b565b505050565b61066061065a610b23565b82610be4565b61069f576040517f08c379a0000000000000000000000000000000000000000000000000000000008152600401610696906122a0565b60405180910390fd5b6106aa838383610cc2565b505050565b6106ca83838360405180602001604052806000815250610945565b505050565b60006106db6007610f1e565b60006106e76007610f34565b90506106f33382610f42565b6106fd8184611110565b61072a600860009054906101000a900473ffffffffffffffffffffffffffffffffffffffff16600161092f565b80915050919050565b6000806002600084815260200190815260200160002060009054906101000a900473ffffffffffffffffffffffffffffffffffffffff169050600073ffffffffffffffffffffffffffffffffffffffff168173ffffffffffffffffffffffffffffffffffffffff1614156107dc576040517f08c379a00000000000000000000000000000000000000000000000000000000081526004016107d3906121a0565b60405180910390fd5b80915050919050565b60008073ffffffffffffffffffffffffffffffffffffffff168273ffffffffffffffffffffffffffffffffffffffff161415610856576040517f08c379a000000000000000000000000000000000000000000000000000000000815260040161084d90612180565b60405180910390fd5b600360008373ffffffffffffffffffffffffffffffffffffffff1673ffffffffffffffffffffffffffffffffffffffff168152602001908152602001600020549050919050565b6060600180546108ac90612516565b80601f01602080910402602001604051908101604052809291908181526020018280546108d890612516565b80156109255780601f106108fa57610100808354040283529160200191610925565b820191906000526020600020905b81548152906001019060200180831161090857829003601f168201915b5050505050905090565b61094161093a610b23565b8383611184565b5050565b610956610950610b23565b83610be4565b610995576040517f08c379a000000000000000000000000000000000000000000000000000000000815260040161098c906122a0565b60405180910390fd5b6109a1848484846112f1565b50505050565b60606109b28261134d565b9050919050565b6000600560008473ffffffffffffffffffffffffffffffffffffffff1673ffffffffffffffffffffffffffffffffffffffff16815260200190815260200160002060008373ffffffffffffffffffffffffffffffffffffffff1673ffffffffffffffffffffffffffffffffffffffff16815260200190815260200160002060009054906101000a900460ff16905092915050565b60007f01ffc9a7000000000000000000000000000000000000000000000000000000007bffffffffffffffffffffffffffffffffffffffffffffffffffffffff1916827bffffffffffffffffffffffffffffffffffffffffffffffffffffffff1916149050919050565b60008073ffffffffffffffffffffffffffffffffffffffff166002600084815260200190815260200160002060009054906101000a900473ffffffffffffffffffffffffffffffffffffffff1673ffffffffffffffffffffffffffffffffffffffff1614159050919050565b600033905090565b816004600083815260200190815260200160002060006101000a81548173ffffffffffffffffffffffffffffffffffffffff021916908373ffffffffffffffffffffffffffffffffffffffff160217905550808273ffffffffffffffffffffffffffffffffffffffff16610b9e83610733565b73ffffffffffffffffffffffffffffffffffffffff167f8c5be1e5ebec7d5bd14f71427d1e84f3dd0314c0f7b2291e5b200ac8c7c3b92560405160405180910390a45050565b6000610bef82610ab7565b610c2e576040517f08c379a0000000000000000000000000000000000000000000000000000000008152600401610c2590612140565b60405180910390fd5b6000610c3983610733565b90508073ffffffffffffffffffffffffffffffffffffffff168473ffffffffffffffffffffffffffffffffffffffff161480610ca857508373ffffffffffffffffffffffffffffffffffffffff16610c90846104b2565b73ffffffffffffffffffffffffffffffffffffffff16145b80610cb95750610cb881856109b9565b5b91505092915050565b8273ffffffffffffffffffffffffffffffffffffffff16610ce282610733565b73ffffffffffffffffffffffffffffffffffffffff1614610d38576040517f08c379a0000000000000000000000000000000000000000000000000000000008152600401610d2f90612240565b60405180910390fd5b600073ffffffffffffffffffffffffffffffffffffffff168273ffffffffffffffffffffffffffffffffffffffff161415610da8576040517f08c379a0000000000000000000000000000000000000000000000000000000008152600401610d9f90612100565b60405180910390fd5b610db383838361149f565b610dbe600082610b2b565b6001600360008573ffffffffffffffffffffffffffffffffffffffff1673ffffffffffffffffffffffffffffffffffffffff1681526020019081526020016000206000828254610e0e919061242c565b925050819055506001600360008473ffffffffffffffffffffffffffffffffffffffff1673ffffffffffffffffffffffffffffffffffffffff1681526020019081526020016000206000828254610e6591906123a5565b92505081905550816002600083815260200190815260200160002060006101000a81548173ffffffffffffffffffffffffffffffffffffffff021916908373ffffffffffffffffffffffffffffffffffffffff160217905550808273ffffffffffffffffffffffffffffffffffffffff168473ffffffffffffffffffffffffffffffffffffffff167fddf252ad1be2c89b69c2b068fc378daa952ba7f163c4a11628f55a4df523b3ef60405160405180910390a4505050565b6001816000016000828254019250508190555050565b600081600001549050919050565b600073ffffffffffffffffffffffffffffffffffffffff168273ffffffffffffffffffffffffffffffffffffffff161415610fb2576040517f08c379a0000000000000000000000000000000000000000000000000000000008152600401610fa9906121e0565b60405180910390fd5b610fbb81610ab7565b15610ffb576040517f08c379a0000000000000000000000000000000000000000000000000000000008152600401610ff2906120e0565b60405180910390fd5b6110076000838361149f565b6001600360008473ffffffffffffffffffffffffffffffffffffffff1673ffffffffffffffffffffffffffffffffffffffff168152602001908152602001600020600082825461105791906123a5565b92505081905550816002600083815260200190815260200160002060006101000a81548173ffffffffffffffffffffffffffffffffffffffff021916908373ffffffffffffffffffffffffffffffffffffffff160217905550808273ffffffffffffffffffffffffffffffffffffffff16600073ffffffffffffffffffffffffffffffffffffffff167fddf252ad1be2c89b69c2b068fc378daa952ba7f163c4a11628f55a4df523b3ef60405160405180910390a45050565b61111982610ab7565b611158576040517f08c379a000000000000000000000000000000000000000000000000000000000815260040161114f906121c0565b60405180910390fd5b8060066000848152602001908152602001600020908051906020019061117f9291906118b9565b505050565b8173ffffffffffffffffffffffffffffffffffffffff168373ffffffffffffffffffffffffffffffffffffffff1614156111f3576040517f08c379a00000000000000000000000000000000000000000000000000000000081526004016111ea90612120565b60405180910390fd5b80600560008573ffffffffffffffffffffffffffffffffffffffff1673ffffffffffffffffffffffffffffffffffffffff16815260200190815260200160002060008473ffffffffffffffffffffffffffffffffffffffff1673ffffffffffffffffffffffffffffffffffffffff16815260200190815260200160002060006101000a81548160ff0219169083151502179055508173ffffffffffffffffffffffffffffffffffffffff168373ffffffffffffffffffffffffffffffffffffffff167f17307eab39ab6107e8899845ad3d59bd9653f200f220920489ca2b5937696c31836040516112e49190612083565b60405180910390a3505050565b6112fc848484610cc2565b611308848484846114a4565b611347576040517f08c379a000000000000000000000000000000000000000000000000000000000815260040161133e906120c0565b60405180910390fd5b50505050565b606061135882610ab7565b611397576040517f08c379a000000000000000000000000000000000000000000000000000000000815260040161138e90612200565b60405180910390fd5b60006006600084815260200190815260200160002080546113b790612516565b80601f01602080910402602001604051908101604052809291908181526020018280546113e390612516565b80156114305780601f1061140557610100808354040283529160200191611430565b820191906000526020600020905b81548152906001019060200180831161141357829003601f168201915b50505050509050600061144161163b565b905060008151141561145757819250505061149a565b60008251111561148c578082604051602001611474929190611ff8565b6040516020818303038152906040529250505061149a565b61149584611652565b925050505b919050565b505050565b60006114c58473ffffffffffffffffffffffffffffffffffffffff166116f9565b1561162e578373ffffffffffffffffffffffffffffffffffffffff1663150b7a026114ee610b23565b8786866040518563ffffffff1660e01b81526004016115109493929190612037565b602060405180830381600087803b15801561152a57600080fd5b505af192505050801561155b57506040513d601f19601f820116820180604052508101906115589190611c65565b60015b6115de573d806000811461158b576040519150601f19603f3d011682016040523d82523d6000602084013e611590565b606091505b506000815114156115d6576040517f08c379a00000000000000000000000000000000000000000000000000000000081526004016115cd906120c0565b60405180910390fd5b805181602001fd5b63150b7a0260e01b7bffffffffffffffffffffffffffffffffffffffffffffffffffffffff1916817bffffffffffffffffffffffffffffffffffffffffffffffffffffffff191614915050611633565b600190505b949350505050565b606060405180602001604052806000815250905090565b606061165d82610ab7565b61169c576040517f08c379a000000000000000000000000000000000000000000000000000000000815260040161169390612260565b60405180910390fd5b60006116a661163b565b905060008151116116c657604051806020016040528060008152506116f1565b806116d08461170c565b6040516020016116e1929190611ff8565b6040516020818303038152906040525b915050919050565b600080823b905060008111915050919050565b60606000821415611754576040518060400160405280600181526020017f300000000000000000000000000000000000000000000000000000000000000081525090506118b4565b600082905060005b6000821461178657808061176f90612579565b915050600a8261177f91906123fb565b915061175c565b60008167ffffffffffffffff8111156117c8577f4e487b7100000000000000000000000000000000000000000000000000000000600052604160045260246000fd5b6040519080825280601f01601f1916602001820160405280156117fa5781602001600182028036833780820191505090505b5090505b600085146118ad57600182611813919061242c565b9150600a8561182291906125c2565b603061182e91906123a5565b60f81b81838151811061186a577f4e487b7100000000000000000000000000000000000000000000000000000000600052603260045260246000fd5b60200101907effffffffffffffffffffffffffffffffffffffffffffffffffffffffffffff1916908160001a905350600a856118a691906123fb565b94506117fe565b8093505050505b919050565b8280546118c590612516565b90600052602060002090601f0160209004810192826118e7576000855561192e565b82601f1061190057805160ff191683800117855561192e565b8280016001018555821561192e579182015b8281111561192d578251825591602001919060010190611912565b5b50905061193b919061193f565b5090565b5b80821115611958576000816000905550600101611940565b5090565b600061196f61196a84612300565b6122db565b90508281526020810184848401111561198757600080fd5b6119928482856124d4565b509392505050565b60006119ad6119a884612331565b6122db565b9050828152602081018484840111156119c557600080fd5b6119d08482856124d4565b509392505050565b6000813590506119e781612b3e565b92915050565b6000813590506119fc81612b55565b92915050565b600081359050611a1181612b6c565b92915050565b600081519050611a2681612b6c565b92915050565b600082601f830112611a3d57600080fd5b8135611a4d84826020860161195c565b91505092915050565b600082601f830112611a6757600080fd5b8135611a7784826020860161199a565b91505092915050565b600081359050611a8f81612b83565b92915050565b600060208284031215611aa757600080fd5b6000611ab5848285016119d8565b91505092915050565b60008060408385031215611ad157600080fd5b6000611adf858286016119d8565b9250506020611af0858286016119d8565b9150509250929050565b600080600060608486031215611b0f57600080fd5b6000611b1d868287016119d8565b9350506020611b2e868287016119d8565b9250506040611b3f86828701611a80565b9150509250925092565b60008060008060808587031215611b5f57600080fd5b6000611b6d878288016119d8565b9450506020611b7e878288016119d8565b9350506040611b8f87828801611a80565b925050606085013567ffffffffffffffff811115611bac57600080fd5b611bb887828801611a2c565b91505092959194509250565b60008060408385031215611bd757600080fd5b6000611be5858286016119d8565b9250506020611bf6858286016119ed565b9150509250929050565b60008060408385031215611c1357600080fd5b6000611c21858286016119d8565b9250506020611c3285828601611a80565b9150509250929050565b600060208284031215611c4e57600080fd5b6000611c5c84828501611a02565b91505092915050565b600060208284031215611c7757600080fd5b6000611c8584828501611a17565b91505092915050565b600060208284031215611ca057600080fd5b600082013567ffffffffffffffff811115611cba57600080fd5b611cc684828501611a56565b91505092915050565b600060208284031215611ce157600080fd5b6000611cef84828501611a80565b91505092915050565b611d0181612460565b82525050565b611d1081612472565b82525050565b6000611d2182612362565b611d2b8185612378565b9350611d3b8185602086016124e3565b611d44816126af565b840191505092915050565b6000611d5a8261236d565b611d648185612389565b9350611d748185602086016124e3565b611d7d816126af565b840191505092915050565b6000611d938261236d565b611d9d818561239a565b9350611dad8185602086016124e3565b80840191505092915050565b6000611dc6603283612389565b9150611dd1826126c0565b604082019050919050565b6000611de9601c83612389565b9150611df48261270f565b602082019050919050565b6000611e0c602483612389565b9150611e1782612738565b604082019050919050565b6000611e2f601983612389565b9150611e3a82612787565b602082019050919050565b6000611e52602c83612389565b9150611e5d826127b0565b604082019050919050565b6000611e75603883612389565b9150611e80826127ff565b604082019050919050565b6000611e98602a83612389565b9150611ea38261284e565b604082019050919050565b6000611ebb602983612389565b9150611ec68261289d565b604082019050919050565b6000611ede602e83612389565b9150611ee9826128ec565b604082019050919050565b6000611f01602083612389565b9150611f0c8261293b565b602082019050919050565b6000611f24603183612389565b9150611f2f82612964565b604082019050919050565b6000611f47602c83612389565b9150611f52826129b3565b604082019050919050565b6000611f6a602983612389565b9150611f7582612a02565b604082019050919050565b6000611f8d602f83612389565b9150611f9882612a51565b604082019050919050565b6000611fb0602183612389565b9150611fbb82612aa0565b604082019050919050565b6000611fd3603183612389565b9150611fde82612aef565b604082019050919050565b611ff2816124ca565b82525050565b60006120048285611d88565b91506120108284611d88565b91508190509392505050565b60006020820190506120316000830184611cf8565b92915050565b600060808201905061204c6000830187611cf8565b6120596020830186611cf8565b6120666040830185611fe9565b81810360608301526120788184611d16565b905095945050505050565b60006020820190506120986000830184611d07565b92915050565b600060208201905081810360008301526120b88184611d4f565b905092915050565b600060208201905081810360008301526120d981611db9565b9050919050565b600060208201905081810360008301526120f981611ddc565b9050919050565b6000602082019050818103600083015261211981611dff565b9050919050565b6000602082019050818103600083015261213981611e22565b9050919050565b6000602082019050818103600083015261215981611e45565b9050919050565b6000602082019050818103600083015261217981611e68565b9050919050565b6000602082019050818103600083015261219981611e8b565b9050919050565b600060208201905081810360008301526121b981611eae565b9050919050565b600060208201905081810360008301526121d981611ed1565b9050919050565b600060208201905081810360008301526121f981611ef4565b9050919050565b6000602082019050818103600083015261221981611f17565b9050919050565b6000602082019050818103600083015261223981611f3a565b9050919050565b6000602082019050818103600083015261225981611f5d565b9050919050565b6000602082019050818103600083015261227981611f80565b9050919050565b6000602082019050818103600083015261229981611fa3565b9050919050565b600060208201905081810360008301526122b981611fc6565b9050919050565b60006020820190506122d56000830184611fe9565b92915050565b60006122e56122f6565b90506122f18282612548565b919050565b6000604051905090565b600067ffffffffffffffff82111561231b5761231a612680565b5b612324826126af565b9050602081019050919050565b600067ffffffffffffffff82111561234c5761234b612680565b5b612355826126af565b9050602081019050919050565b600081519050919050565b600081519050919050565b600082825260208201905092915050565b600082825260208201905092915050565b600081905092915050565b60006123b0826124ca565b91506123bb836124ca565b9250827fffffffffffffffffffffffffffffffffffffffffffffffffffffffffffffffff038211156123f0576123ef6125f3565b5b828201905092915050565b6000612406826124ca565b9150612411836124ca565b92508261242157612420612622565b5b828204905092915050565b6000612437826124ca565b9150612442836124ca565b925082821015612455576124546125f3565b5b828203905092915050565b600061246b826124aa565b9050919050565b60008115159050919050565b60007fffffffff0000000000000000000000000000000000000000000000000000000082169050919050565b600073ffffffffffffffffffffffffffffffffffffffff82169050919050565b6000819050919050565b82818337600083830152505050565b60005b838110156125015780820151818401526020810190506124e6565b83811115612510576000848401525b50505050565b6000600282049050600182168061252e57607f821691505b6020821081141561254257612541612651565b5b50919050565b612551826126af565b810181811067ffffffffffffffff821117156125705761256f612680565b5b80604052505050565b6000612584826124ca565b91507fffffffffffffffffffffffffffffffffffffffffffffffffffffffffffffffff8214156125b7576125b66125f3565b5b600182019050919050565b60006125cd826124ca565b91506125d8836124ca565b9250826125e8576125e7612622565b5b828206905092915050565b7f4e487b7100000000000000000000000000000000000000000000000000000000600052601160045260246000fd5b7f4e487b7100000000000000000000000000000000000000000000000000000000600052601260045260246000fd5b7f4e487b7100000000000000000000000000000000000000000000000000000000600052602260045260246000fd5b7f4e487b7100000000000000000000000000000000000000000000000000000000600052604160045260246000fd5b6000601f19601f8301169050919050565b7f4552433732313a207472616e7366657220746f206e6f6e20455243373231526560008201527f63656976657220696d706c656d656e7465720000000000000000000000000000602082015250565b7f4552433732313a20746f6b656e20616c7265616479206d696e74656400000000600082015250565b7f4552433732313a207472616e7366657220746f20746865207a65726f2061646460008201527f7265737300000000000000000000000000000000000000000000000000000000602082015250565b7f4552433732313a20617070726f766520746f2063616c6c657200000000000000600082015250565b7f4552433732313a206f70657261746f7220717565727920666f72206e6f6e657860008201527f697374656e7420746f6b656e0000000000000000000000000000000000000000602082015250565b7f4552433732313a20617070726f76652063616c6c6572206973206e6f74206f7760008201527f6e6572206e6f7220617070726f76656420666f7220616c6c0000000000000000602082015250565b7f4552433732313a2062616c616e636520717565727920666f7220746865207a6560008201527f726f206164647265737300000000000000000000000000000000000000000000602082015250565b7f4552433732313a206f776e657220717565727920666f72206e6f6e657869737460008201527f656e7420746f6b656e0000000000000000000000000000000000000000000000602082015250565b7f45524337323155524953746f726167653a2055524920736574206f66206e6f6e60008201527f6578697374656e7420746f6b656e000000000000000000000000000000000000602082015250565b7f4552433732313a206d696e7420746f20746865207a65726f2061646472657373600082015250565b7f45524337323155524953746f726167653a2055524920717565727920666f722060008201527f6e6f6e6578697374656e7420746f6b656e000000000000000000000000000000602082015250565b7f4552433732313a20617070726f76656420717565727920666f72206e6f6e657860008201527f697374656e7420746f6b656e0000000000000000000000000000000000000000602082015250565b7f4552433732313a207472616e73666572206f6620746f6b656e2074686174206960008201527f73206e6f74206f776e0000000000000000000000000000000000000000000000602082015250565b7f4552433732314d657461646174613a2055524920717565727920666f72206e6f60008201527f6e6578697374656e7420746f6b656e0000000000000000000000000000000000602082015250565b7f4552433732313a20617070726f76616c20746f2063757272656e74206f776e6560008201527f7200000000000000000000000000000000000000000000000000000000000000602082015250565b7f4552433732313a207472616e736665722063616c6c6572206973206e6f74206f60008201527f776e6572206e6f7220617070726f766564000000000000000000000000000000602082015250565b612b4781612460565b8114612b5257600080fd5b50565b612b5e81612472565b8114612b6957600080fd5b50565b612b758161247e565b8114612b8057600080fd5b50565b612b8c816124ca565b8114612b9757600080fd5b5056fea2646970667358221220ae7b75090cc96fb4dcd5a5939f94282437dbe7615e42654217e3ae6e58b0e17764736f6c63430008040033",
  "linkReferences": {},
  "deployedLinkReferences": {}
}